{
  "contractName": "MyRaribleMarketplace",
  "abi": [
    {
      "anonymous": false,
      "inputs": [
        {
          "indexed": false,
          "internalType": "uint256",
          "name": "id",
          "type": "uint256"
        },
        {
          "indexed": false,
          "internalType": "uint256",
          "name": "tokenId",
          "type": "uint256"
        },
        {
          "indexed": false,
          "internalType": "address",
          "name": "tokenAddress",
          "type": "address"
        },
        {
          "indexed": false,
          "internalType": "uint256",
          "name": "askingPrice",
          "type": "uint256"
        }
      ],
      "name": "itemAdded",
      "type": "event"
    },
    {
      "anonymous": false,
      "inputs": [
        {
          "indexed": false,
          "internalType": "uint256",
          "name": "id",
          "type": "uint256"
        },
        {
          "indexed": false,
          "internalType": "address",
          "name": "buyer",
          "type": "address"
        },
        {
          "indexed": false,
          "internalType": "uint256",
          "name": "askingPrice",
          "type": "uint256"
        }
      ],
      "name": "itemSold",
      "type": "event"
    },
    {
      "inputs": [
        {
          "internalType": "uint256",
          "name": "",
          "type": "uint256"
        }
      ],
      "name": "itemsForSale",
      "outputs": [
        {
          "internalType": "uint256",
          "name": "id",
          "type": "uint256"
        },
        {
          "internalType": "address",
          "name": "tokenAddress",
          "type": "address"
        },
        {
          "internalType": "uint256",
          "name": "tokenId",
          "type": "uint256"
        },
        {
          "internalType": "address payable",
          "name": "seller",
          "type": "address"
        },
        {
          "internalType": "uint256",
          "name": "askingPrice",
          "type": "uint256"
        },
        {
          "internalType": "bool",
          "name": "isSold",
          "type": "bool"
        }
      ],
      "stateMutability": "view",
      "type": "function",
      "constant": true
    },
    {
      "inputs": [
        {
          "internalType": "uint256",
          "name": "tokenId",
          "type": "uint256"
        },
        {
          "internalType": "address",
          "name": "tokenAddress",
          "type": "address"
        },
        {
          "internalType": "uint256",
          "name": "askingPrice",
          "type": "uint256"
        }
      ],
      "name": "addItemToMarket",
      "outputs": [
        {
          "internalType": "uint256",
          "name": "",
          "type": "uint256"
        }
      ],
      "stateMutability": "nonpayable",
      "type": "function"
    },
    {
      "inputs": [
        {
          "internalType": "uint256",
          "name": "id",
          "type": "uint256"
        }
      ],
      "name": "buyItem",
      "outputs": [],
      "stateMutability": "payable",
      "type": "function",
      "payable": true
    }
  ],
  "bytecode": "0x608060405234801561001057600080fd5b50611562806100206000396000f3fe6080604052600436106100345760003560e01c8063092d0afc146100395780634abc22021461007b578063e7fb74c7146100b8575b600080fd5b34801561004557600080fd5b50610060600480360381019061005b9190610f77565b6100d4565b6040516100729695949392919061128d565b60405180910390f35b34801561008757600080fd5b506100a2600480360381019061009d9190610fa0565b61016d565b6040516100af919061123b565b60405180910390f35b6100d260048036038101906100cd9190610f77565b610636565b005b600081815481106100e457600080fd5b90600052602060002090600602016000915090508060000154908060010160009054906101000a900473ffffffffffffffffffffffffffffffffffffffff16908060020154908060030160009054906101000a900473ffffffffffffffffffffffffffffffffffffffff16908060040154908060050160009054906101000a900460ff16905086565b6000828460008290503373ffffffffffffffffffffffffffffffffffffffff168173ffffffffffffffffffffffffffffffffffffffff16636352211e846040518263ffffffff1660e01b81526004016101c6919061123b565b60206040518083038186803b1580156101de57600080fd5b505afa1580156101f2573d6000803e3d6000fd5b505050506040513d601f19601f820116820180604052508101906102169190610f4e565b73ffffffffffffffffffffffffffffffffffffffff161461023657600080fd5b858760008290503073ffffffffffffffffffffffffffffffffffffffff168173ffffffffffffffffffffffffffffffffffffffff1663081812fc846040518263ffffffff1660e01b815260040161028d919061123b565b60206040518083038186803b1580156102a557600080fd5b505afa1580156102b9573d6000803e3d6000fd5b505050506040513d601f19601f820116820180604052508101906102dd9190610f4e565b73ffffffffffffffffffffffffffffffffffffffff16146102fd57600080fd5b60001515600160008b73ffffffffffffffffffffffffffffffffffffffff1673ffffffffffffffffffffffffffffffffffffffff16815260200190815260200160002060008c815260200190815260200160002060009054906101000a900460ff161515146103a1576040517f08c379a00000000000000000000000000000000000000000000000000000000081526004016103989061117b565b60405180910390fd5b60008080549050905060006040518060c001604052808381526020018c73ffffffffffffffffffffffffffffffffffffffff1681526020018d81526020013373ffffffffffffffffffffffffffffffffffffffff1681526020018b81526020016000151581525090806001815401808255809150506001900390600052602060002090600602016000909190919091506000820151816000015560208201518160010160006101000a81548173ffffffffffffffffffffffffffffffffffffffff021916908373ffffffffffffffffffffffffffffffffffffffff1602179055506040820151816002015560608201518160030160006101000a81548173ffffffffffffffffffffffffffffffffffffffff021916908373ffffffffffffffffffffffffffffffffffffffff1602179055506080820151816004015560a08201518160050160006101000a81548160ff021916908315150217905550505060018060008c73ffffffffffffffffffffffffffffffffffffffff1673ffffffffffffffffffffffffffffffffffffffff16815260200190815260200160002060008d815260200190815260200160002060006101000a81548160ff02191690831515021790555080600082815481106105a2577f4e487b7100000000000000000000000000000000000000000000000000000000600052603260045260246000fd5b906000526020600020906006020160000154146105e8577f4e487b7100000000000000000000000000000000000000000000000000000000600052600160045260246000fd5b7fd3742413e0092c98517699ed9f8567218c740a5a265a7a986d9430d597937522818c8c8c60405161061d94939291906112ee565b60405180910390a1809750505050505050509392505050565b806000805490508110801561069557508060008281548110610681577f4e487b7100000000000000000000000000000000000000000000000000000000600052603260045260246000fd5b906000526020600020906006020160000154145b6106d4576040517f08c379a00000000000000000000000000000000000000000000000000000000081526004016106cb906111fb565b60405180910390fd5b816000151560008281548110610713577f4e487b7100000000000000000000000000000000000000000000000000000000600052603260045260246000fd5b906000526020600020906006020160050160009054906101000a900460ff16151514610774576040517f08c379a000000000000000000000000000000000000000000000000000000000815260040161076b9061121b565b60405180910390fd5b600083815481106107ae577f4e487b7100000000000000000000000000000000000000000000000000000000600052603260045260246000fd5b906000526020600020906006020160010160009054906101000a900473ffffffffffffffffffffffffffffffffffffffff166000848154811061081a577f4e487b7100000000000000000000000000000000000000000000000000000000600052603260045260246000fd5b90600052602060002090600602016002015460008290503073ffffffffffffffffffffffffffffffffffffffff168173ffffffffffffffffffffffffffffffffffffffff1663081812fc846040518263ffffffff1660e01b8152600401610881919061123b565b60206040518083038186803b15801561089957600080fd5b505afa1580156108ad573d6000803e3d6000fd5b505050506040513d601f19601f820116820180604052508101906108d19190610f4e565b73ffffffffffffffffffffffffffffffffffffffff16146108f157600080fd5b6000868154811061092b577f4e487b7100000000000000000000000000000000000000000000000000000000600052603260045260246000fd5b90600052602060002090600602016004015434101561097f576040517f08c379a00000000000000000000000000000000000000000000000000000000081526004016109769061119b565b60405180910390fd5b600086815481106109b9577f4e487b7100000000000000000000000000000000000000000000000000000000600052603260045260246000fd5b906000526020600020906006020160030160009054906101000a900473ffffffffffffffffffffffffffffffffffffffff1673ffffffffffffffffffffffffffffffffffffffff163373ffffffffffffffffffffffffffffffffffffffff161415610a59576040517f08c379a0000000000000000000000000000000000000000000000000000000008152600401610a50906111db565b60405180910390fd5b600160008781548110610a95577f4e487b7100000000000000000000000000000000000000000000000000000000600052603260045260246000fd5b906000526020600020906006020160050160006101000a81548160ff021916908315150217905550600060016000808981548110610afc577f4e487b7100000000000000000000000000000000000000000000000000000000600052603260045260246000fd5b906000526020600020906006020160010160009054906101000a900473ffffffffffffffffffffffffffffffffffffffff1673ffffffffffffffffffffffffffffffffffffffff1673ffffffffffffffffffffffffffffffffffffffff1681526020019081526020016000206000808981548110610ba3577f4e487b7100000000000000000000000000000000000000000000000000000000600052603260045260246000fd5b906000526020600020906006020160020154815260200190815260200160002060006101000a81548160ff02191690831515021790555060008681548110610c14577f4e487b7100000000000000000000000000000000000000000000000000000000600052603260045260246000fd5b906000526020600020906006020160010160009054906101000a900473ffffffffffffffffffffffffffffffffffffffff1673ffffffffffffffffffffffffffffffffffffffff166342842e0e60008881548110610c9b577f4e487b7100000000000000000000000000000000000000000000000000000000600052603260045260246000fd5b906000526020600020906006020160030160009054906101000a900473ffffffffffffffffffffffffffffffffffffffff163360008a81548110610d08577f4e487b7100000000000000000000000000000000000000000000000000000000600052603260045260246000fd5b9060005260206000209060060201600201546040518463ffffffff1660e01b8152600401610d3893929190611144565b600060405180830381600087803b158015610d5257600080fd5b505af1158015610d66573d6000803e3d6000fd5b505050506000808781548110610da5577f4e487b7100000000000000000000000000000000000000000000000000000000600052603260045260246000fd5b906000526020600020906006020160030160009054906101000a900473ffffffffffffffffffffffffffffffffffffffff1673ffffffffffffffffffffffffffffffffffffffff1634604051610dfa9061112f565b60006040518083038185875af1925050503d8060008114610e37576040519150601f19603f3d011682016040523d82523d6000602084013e610e3c565b606091505b5050905080610e80576040517f08c379a0000000000000000000000000000000000000000000000000000000008152600401610e77906111bb565b60405180910390fd5b7f8164c6f8917e418c49813e4586897c7067de5a886aa1bea980cd11fa57d48264873360008a81548110610edd577f4e487b7100000000000000000000000000000000000000000000000000000000600052603260045260246000fd5b906000526020600020906006020160040154604051610efe93929190611256565b60405180910390a150505050505050565b600081359050610f1e816114fe565b92915050565b600081519050610f33816114fe565b92915050565b600081359050610f4881611515565b92915050565b600060208284031215610f6057600080fd5b6000610f6e84828501610f24565b91505092915050565b600060208284031215610f8957600080fd5b6000610f9784828501610f39565b91505092915050565b600080600060608486031215610fb557600080fd5b6000610fc386828701610f39565b9350506020610fd486828701610f0f565b9250506040610fe586828701610f39565b9150509250925092565b610ff8816113a9565b82525050565b61100781611361565b82525050565b6110168161134f565b82525050565b61102581611373565b82525050565b600061103860188361133e565b9150611043826113df565b602082019050919050565b600061105b602e8361133e565b915061106682611408565b604082019050919050565b600061107e601c8361133e565b915061108982611457565b602082019050919050565b60006110a1601f8361133e565b91506110ac82611480565b602082019050919050565b60006110c460148361133e565b91506110cf826114a9565b602082019050919050565b60006110e7600083611333565b91506110f2826114d2565b600082019050919050565b600061110a60158361133e565b9150611115826114d5565b602082019050919050565b6111298161139f565b82525050565b600061113a826110da565b9150819050919050565b60006060820190506111596000830186610fef565b611166602083018561100d565b6111736040830184611120565b949350505050565b600060208201905081810360008301526111948161102b565b9050919050565b600060208201905081810360008301526111b48161104e565b9050919050565b600060208201905081810360008301526111d481611071565b9050919050565b600060208201905081810360008301526111f481611094565b9050919050565b60006020820190508181036000830152611214816110b7565b9050919050565b60006020820190508181036000830152611234816110fd565b9050919050565b60006020820190506112506000830184611120565b92915050565b600060608201905061126b6000830186611120565b611278602083018561100d565b6112856040830184611120565b949350505050565b600060c0820190506112a26000830189611120565b6112af602083018861100d565b6112bc6040830187611120565b6112c96060830186610ffe565b6112d66080830185611120565b6112e360a083018461101c565b979650505050505050565b60006080820190506113036000830187611120565b6113106020830186611120565b61131d604083018561100d565b61132a6060830184611120565b95945050505050565b600081905092915050565b600082825260208201905092915050565b600061135a8261137f565b9050919050565b600061136c8261137f565b9050919050565b60008115159050919050565b600073ffffffffffffffffffffffffffffffffffffffff82169050919050565b6000819050919050565b60006113b4826113bb565b9050919050565b60006113c6826113cd565b9050919050565b60006113d88261137f565b9050919050565b7f4974656d20697320616c7265616479206f6e2073616c65210000000000000000600082015250565b7f5468652073656e742076616c7565206973206c6f776572207468616e2074686560008201527f2061637475616c20707269636521000000000000000000000000000000000000602082015250565b7f46756e64732063616c6c20746f2073656c6c6572206661696c65642100000000600082015250565b7f596f752063616e206e6f742062757920796f7572206f776e20746f6b656e2100600082015250565b7f436f756c64206e6f742066696e64206974656d21000000000000000000000000600082015250565b50565b7f4974656d20697320616c726561647920736f6c64210000000000000000000000600082015250565b6115078161134f565b811461151257600080fd5b50565b61151e8161139f565b811461152957600080fd5b5056fea2646970667358221220014c8cdf446d6647a529d74fd9492129576fb6b43e0a5699e612039f039b6a0164736f6c63430008040033",
  "immutableReferences": {},
  "source": "// SPDX-License-Identifier:MIT\r\npragma solidity ^0.8.0;\r\n\r\nimport \"../node_modules/@openzeppelin/contracts/token/ERC721/ERC721.sol\";\r\n\r\ncontract MyRaribleMarketplace {\r\n    struct AuctionItem {\r\n        uint256 id;\r\n        address tokenAddress;\r\n        uint256 tokenId;\r\n        address payable seller;\r\n        uint256 askingPrice;\r\n        bool isSold;\r\n    }\r\n\r\n    AuctionItem[] public itemsForSale;\r\n    mapping(address => mapping(uint256 => bool)) activeItems; //Maps tokenaddress to id which points to isSold boolFlag\r\n\r\n    event itemAdded(uint256 id, uint256 tokenId, address tokenAddress, uint256 askingPrice);\r\n    event itemSold(uint256 id, address buyer, uint256 askingPrice);\r\n\r\n    modifier OnlyItemOwner(address tokenAddress, uint256 tokenId) {\r\n        IERC721 tokenContract = IERC721(tokenAddress);\r\n        require(tokenContract.ownerOf(tokenId) == msg.sender);\r\n        _;\r\n    }\r\n\r\n     modifier HasTransferApproval(address tokenAddress, uint256 tokenId) {\r\n        IERC721 tokenContract = IERC721(tokenAddress);\r\n        require(tokenContract.getApproved(tokenId) == address(this));\r\n        _;\r\n    }\r\n\r\n    modifier ItemExists(uint256 id){\r\n        require(id < itemsForSale.length && itemsForSale[id].id == id, \"Could not find item!\");\r\n        _;\r\n    }\r\n\r\n    modifier IsForSale(uint256 id){\r\n        require(itemsForSale[id].isSold == false, \"Item is already sold!\");\r\n        _;\r\n    }\r\n\r\n    function addItemToMarket(\r\n        uint256 tokenId, address tokenAddress, uint256 askingPrice\r\n        ) \r\n        OnlyItemOwner(\r\n            tokenAddress, tokenId\r\n        )\r\n        HasTransferApproval(\r\n        tokenAddress, tokenId\r\n        )\r\n        external returns(uint256){\r\n            require(activeItems[tokenAddress][tokenId] == false, \"Item is already on sale!\");\r\n            uint256 newItemId = itemsForSale.length;\r\n            itemsForSale.push(AuctionItem(\r\n                newItemId,\r\n                tokenAddress, \r\n                tokenId,\r\n                payable(msg.sender),\r\n                askingPrice,\r\n                false\r\n            ));\r\n            activeItems[tokenAddress][tokenId] = true;\r\n\r\n            assert(itemsForSale[newItemId].id == newItemId);\r\n            emit itemAdded(newItemId, tokenId, tokenAddress, askingPrice);\r\n            return newItemId;\r\n        }\r\n\r\n    function buyItem(uint256 id) payable external \r\n    ItemExists(id) \r\n    IsForSale(id) \r\n    HasTransferApproval(itemsForSale[id].tokenAddress, itemsForSale[id].tokenId){\r\n        require(msg.value >= itemsForSale[id].askingPrice, \"The sent value is lower than the actual price!\");\r\n        require(msg.sender != itemsForSale[id].seller, \"You can not buy your own token!\");\r\n\r\n        itemsForSale[id].isSold = true;\r\n         activeItems[itemsForSale[id].tokenAddress][itemsForSale[id].tokenId] = false;\r\n         IERC721(itemsForSale[id].tokenAddress).safeTransferFrom(itemsForSale[id].seller, msg.sender, itemsForSale[id].tokenId);\r\n         (bool success, ) = itemsForSale[id].seller.call{value: msg.value}(\"\");\r\n         require(success, \"Funds call to seller failed!\");\r\n\r\n         emit itemSold(id, msg.sender, itemsForSale[id].askingPrice);\r\n    }\r\n\r\n\r\n}",
  "sourcePath": "D:/Moralis/MyRarible/contracts/contracts/Marketplace.sol",
  "compiler": {
    "name": "solc",
    "version": "0.8.4+commit.c7e474f2.Emscripten.clang"
  },
  "schemaVersion": "3.4.1",
  "updatedAt": "2021-05-15T16:30:49.123Z",
  "networkType": "ethereum",
  "devdoc": {
    "kind": "dev",
    "methods": {},
    "version": 1
  },
  "userdoc": {
    "kind": "user",
    "methods": {},
    "version": 1
  }
}